:020000040800F2
:1000000000800020BD0E00080D0F00089936000882
:100010000D0F00080D0F00080D0F00080000000074
:100020000000000000000000000000000D0F0008AC
:100030000D0F0008000000000D0F0008A136000899
:100040000D0F00080D0F00080D0F00080D0F000820
:100050000D0F00080D0F00080D0F00080D0F000810
:100060000D0F00080D0F00080D0F00080D0F000800
:100070000D0F00080D0F00080D0F00080D0F0008F0
:100080000D0F000800000000213500080D0F0008CA
:100090000D0F00080D0F00080D0F00080D0F0008D0
:1000A0003D3500082D3500080D0F00080D0F000824
:1000B0000D0F00080D0F00080D0F00080D0F0008B0
:1000C0000D0F00080D0F00080D0F00080D0F0008A0
:1000D0000D0F00080D0F0008793500080D0F0008FE
:1000E000E53600080D0F00080D0F00080D0F000881
:1000F0000D0F00080D0F00080D0F00080000000094
:10010000000000000D0F0008000000000D0F0008A7
:100110000D0F0008000000000D0F00080D0F000873
:100120000D0F00080D0F00080D0F00080D0F00083F
:100130000D0F000800000000000000000D0F000877
:100140000D0F00080D0F0008000000000000000067
:10015000000000000000000000000000000000009F
:100160000000000000000000000000000D0F00086B
:100170000D0F00080000000000000000000000005B
:10018000000000000D0F000800000000000000004B
:10019000000000000000000000000000000000005F
:1001A00000000000000000000D0F00080D0F000807
:1001B0000D0F00080D0F00080D0F000800000000D3
:1001C000000000000D0F000800000000000000000B
:0801D0000D0F00080D0F0008DF
:1001D80010B5054C237833B9044B13B10448AFF379
:1001E80000800123237010BD94030020000000004C
:1001F800D88C000808B5034B1BB103490348AFF37B
:10020800008008BD0000000098030020D88C00087A
:1002180081F0004102E000BF83F0004330B54FEAAF
:1002280041044FEA430594EA050F08BF90EA020F1C
:100238001FBF54EA000C55EA020C7FEA645C7FEAAF
:10024800655C00F0E2804FEA5454D4EB5555B8BFD2
:100258006D420CDD2C4480EA020281EA030382EA43
:10026800000083EA010180EA020281EA0303362DD5
:1002780088BF30BD11F0004F4FEA01314FF4801CA8
:100288004CEA113102D0404261EB410113F0004FBA
:100298004FEA03334CEA133302D0524263EB430371
:1002A80094EA050F00F0A780A4F10104D5F1200E0F
:1002B8000DDB02FA0EFC22FA05F2801841F100016A
:1002C80003FA0EF2801843FA05F359410EE0A5F13E
:1002D80020050EF1200E012A03FA0EFC28BF4CF06F
:1002E800020C43FA05F3C01851EBE37101F0004525
:1002F80007D54FF0000EDCF1000C7EEB00006EEB32
:100308000101B1F5801F1BD3B1F5001F0CD34908BB
:100318005FEA30004FEA3C0C04F101044FEA445212
:1003280012F5800F80F09A80BCF1004F08BF5FEA99
:10033800500C50F1000041EB045141EA050130BD79
:100348005FEA4C0C404141EB0101013C28BFB1F58B
:10035800801FE9D291F0000F04BF01460020B1FAD6
:1003680081F308BF2033A3F10B03B3F120020CDAA9
:100378000C3208DD02F1140CC2F10C0201FA0CF087
:1003880021FA02F10CE002F11402D8BFC2F1200CEC
:1003980001FA02F120FA0CFCDCBF41EA0C019040A2
:1003A800E41AA2BF01EB0451294330BD6FEA0404EB
:1003B8001F3C1CDA0C340EDC04F11404C4F12002D6
:1003C80020FA04F001FA02F340EA030021FA04F3E8
:1003D80045EA030130BDC4F10C04C4F1200220FA3F
:1003E80002F001FA04F340EA0300294630BD21FA7D
:1003F80004F0294630BD94F0000F83F4801306BF43
:1004080081F480110134013D4EE77FEA645C18BF36
:100418007FEA655C29D094EA050F08BF90EA020FCD
:1004280005D054EA000C04BF1946104630BD91EAC5
:10043800030F1EBF0021002030BD5FEA545C05D1C8
:100448004000494128BF41F0004130BD14F5800407
:100458003CBF01F5801130BD01F0004545F0FE417B
:1004680041F470014FF0000030BD7FEA645C1ABFB0
:10047800194610467FEA655C1CBF0B46024650EAE7
:10048800013406BF52EA033591EA030F41F4002113
:1004980030BD00BF90F0000F04BF0021704730B599
:1004A8004FF4806404F132044FF000054FF000016E
:1004B80050E700BF90F0000F04BF0021704730B52F
:1004C8004FF4806404F1320410F0004548BF404204
:1004D8004FF000013EE700BF42004FEAE2014FEA59
:1004E80031014FEA02701FBF12F07F4393F07F4F34
:1004F80081F06051704732F07F4208BF704793F037
:100508007F4F04BF41F40021704730B54FF4607449
:1005180001F0004521F000411CE700BF50EA01024C
:1005280008BF704730B54FF000050AE050EA0102F5
:1005380008BF704730B511F0004502D5404261EB65
:1005480041014FF4806404F132045FEA915C3FF4A6
:10055800D8AE4FF003025FEADC0C18BF03325FEA43
:10056800DC0C18BF033202EBDC02C2F1200300FAF4
:1005780003FC20FA02F001FA03FE40EA0E0021FA19
:1005880002F11444BDE600BF70B54FF0FF0C4CF407
:10059800E06C1CEA11541DBF1CEA135594EA0C0FB9
:1005A80095EA0C0F00F0DEF82C4481EA030621EAF4
:1005B8004C5123EA4C5350EA013518BF52EA03352F
:1005C80041F4801143F4801338D0A0FB02CE4FF0E1
:1005D8000005E1FB02E506F00042E0FB03E54FF011
:1005E8000006E1FB03569CF0000F18BF4EF0010E09
:1005F800A4F1FF04B6F5007F64F5407404D25FEA05
:100608004E0E6D4146EB060642EAC62141EA5551B7
:100618004FEAC52040EA5E504FEACE2EB4F1FD0CF9
:1006280088BFBCF5E06F1ED8BEF1004F08BF5FEA77
:10063800500E50F1000041EB045170BD06F0004629
:1006480046EA010140EA020081EA0301B4EB5C04D6
:10065800C2BFD4EB0C0541EA045170BD41F48011CE
:100668004FF0000E013C00F3AB8014F1360FDEBFF3
:10067800002001F0004170BDC4F10004203C35DACF
:100688000C341BDC04F11404C4F1200500FA05F352
:1006980020FA04F001FA05F240EA020001F00042F3
:1006A80021F0004110EBD37021FA04F642EB060169
:1006B8005EEA430E08BF20EAD37070BDC4F10C0493
:1006C800C4F1200500FA04F320FA05F001FA04F257
:1006D80040EA020001F0004110EBD37041F1000143
:1006E8005EEA430E08BF20EAD37070BDC4F120054E
:1006F80000FA05F24EEA020E20FA04F301FA05F2B6
:1007080043EA020321FA04F001F0004121FA04F25D
:1007180020EA020000EBD3705EEA430E08BF20EA2D
:10072800D37070BD94F0000F0FD101F00046400067
:1007380041EB010111F4801F08BF013CF7D041EAE9
:10074800060195F0000F18BF704703F000465200ED
:1007580043EB030313F4801F08BF013DF7D043EABE
:100768000603704794EA0C0F0CEA135518BF95EA74
:100778000C0F0CD050EA410618BF52EA4306D1D1FB
:1007880081EA030101F000414FF0000070BD50EA1A
:10079800410606BF1046194652EA430619D094EAA4
:1007A8000C0F02D150EA013613D195EA0C0F05D18E
:1007B80052EA03361CBF104619460AD181EA0301E2
:1007C80001F0004141F0FE4141F470014FF000009A
:1007D80070BD41F0FE4141F4780170BD70B54FF035
:1007E800FF0C4CF4E06C1CEA11541DBF1CEA1355B5
:1007F80094EA0C0F95EA0C0F00F0A7F8A4EB050497
:1008080081EA030E52EA03354FEA013100F088808D
:100818004FEA03334FF0805545EA131343EA126356
:100828004FEA022245EA111545EA10654FEA00260B
:100838000EF000419D4208BF964244F1FD0404F5C4
:10084800407402D25B084FEA3202B61A65EB030520
:100858005B084FEA32024FF480104FF4002CB6EBDD
:10086800020E75EB030E22BFB61A754640EA0C005D
:100878005B084FEA3202B6EB020E75EB030E22BF9D
:10088800B61A754640EA5C005B084FEA3202B6EBDE
:10089800020E75EB030E22BFB61A754640EA9C009D
:1008A8005B084FEA3202B6EB020E75EB030E22BF6D
:1008B800B61A754640EADC0055EA060E18D04FEA2B
:1008C800051545EA16754FEA06164FEAC30343EACB
:1008D80052734FEAC2025FEA1C1CC0D111F4801F98
:1008E8000BD141EA00014FF000004FF0004CB6E791
:1008F80011F4801F04BF01430020B4F1FD0C88BF30
:10090800BCF5E06F3FF6AFAEB5EB030C04BFB6EB3A
:10091800020C5FEA500C50F1000041EB045170BD2D
:100928000EF0004E4EEA113114EB5C04C2BFD4EB5A
:100938000C0541EA045170BD41F480114FF0000EDE
:10094800013C90E645EA060E8DE60CEA135594EA5A
:100958000C0F08BF95EA0C0F3FF43BAF94EA0C0F5D
:100968000AD150EA01347FF434AF95EA0C0F7FF4D2
:1009780025AF104619462CE795EA0C0F06D152EA26
:1009880003353FF4FDAE1046194622E750EA41060A
:1009980018BF52EA43067FF4C5AE50EA41047FF41B
:1009A8000DAF52EA43057FF4EBAE12E74FF0FF3C80
:1009B80006E000BF4FF0010C02E000BF4FF0010C51
:1009C8004DF804CD4FEA410C7FEA6C5C4FEA430CCA
:1009D80018BF7FEA6C5C1BD001B050EA410C0CBF19
:1009E80052EA430C91EA030F02BF90EA020F00207B
:1009F800704710F1000F91EA030F58BF994208BFE2
:100A080090422CBFD8176FEAE37040F0010070479E
:100A18004FEA410C7FEA6C5C02D150EA013C07D1F5
:100A28004FEA430C7FEA6C5CD6D152EA033CD3D040
:100A38005DF8040B704700BF8446104662468C463A
:100A48001946634600E000BF01B5FFF7B7FF00286D
:100A580048BF10F1000F01BD4DF808EDFFF7F4FF96
:100A68000CBF012000205DF808FB00BF4DF808ED21
:100A7800FFF7EAFF34BF012000205DF808FB00BF44
:100A88004DF808EDFFF7E0FF94BF012000205DF866
:100A980008FB00BF4DF808EDFFF7CEFF94BF01201B
:100AA80000205DF808FB00BF4DF808EDFFF7C4FF14
:100AB80034BF012000205DF808FB00BF4FEA410C5D
:100AC8007FEA6C5C02D150EA013C0AD14FEA430C40
:100AD8007FEA6C5C02D152EA033C02D14FF000007D
:100AE80070474FF0010070474FEA4102B2F1E0430E
:100AF80024BFB3F5001CDCF1FE5C0DD901F0004CFD
:100B08004FEAC0024CEA5070B2F1004F40EB83004C
:100B180008BF20F00100704711F0804F21D113F178
:100B28003872BCBF01F00040704741F480114FEAB1
:100B38005252C2F11802C2F1200C10FA0CF320FA3A
:100B480002F018BF40F001004FEAC1234FEAD32357
:100B580003FA0CFC40EA0C0023FA02F34FEA4303C1
:100B6800CCE77FEA625307D150EA01331EBF4FF04A
:100B7800FE4040F44000704701F0004040F0FE4065
:100B880040F40000704700BF53B94AB9002908BFB4
:100B980000281CBF4FF0FF314FF0FF3000F088B93C
:100BA800ADF1080C6DE904CE00F006F8DDF804E0BC
:100BB800DDE9022304B070472DE9F047089D0F4690
:100BC80004468C46002B48D18A42164661D9B2FAAF
:100BD80082F34BB1C3F1200201FA03FC20FA02F2BE
:100BE8009E4042EA0C0C9C404FEA164EB7B2BCFB42
:100BF800FEF1220C0EFB11CC42EA0C4201FB07F07D
:100C0800904209D9B21801F1FF3C80F0EE80904281
:100C180040F2EB8002393244121AA4B2B2FBFEF061
:100C28000EFB102244EA024400FB07F7A74209D949
:100C3800341900F1FF3280F0DA80A74240F2D78001
:100C48003444023840EA0140E41B00211DB1DC4075
:100C58000023C5E90043BDE8F0878B4206D90DB1F2
:100C6800C5E9000100210846BDE8F087B3FA83F121
:100C7800002948D1BB4202D3824200F20781841A7C
:100C880067EB030201209446002DE4D0C5E9004C2F
:100C9800E1E7002A00F09280B2FA82F3002B40F0DC
:100CA800A8808A1A4FEA164E1FFA86FC0121200CEA
:100CB800B2FBFEF70EFB172240EA02420CFB07F0DC
:100CC800904207D9B21807F1FF3802D2904200F2D9
:100CD800E2804746121AA4B2B2FBFEF00EFB1022C5
:100CE80044EA02440CFB00FCA44507D9341900F17E
:100CF800FF3202D2A44500F2CB801046A4EB0C04CC
:100D080040EA0740A2E7C1F120068B4022FA06FC20
:100D18004CEA030C07FA01F420FA06F3F7404FEA0D
:100D28001C49234300FA01F81FFA8CFEB7FBF9F0BF
:100D38001C0C09FB107744EA074400FB0EF7A74296
:100D480002FA01F20AD91CEB040400F1FF3A80F020
:100D58009B80A74240F2988002386444E41B9FB20B
:100D6800B4FBF9F309FB134447EA044403FB0EFE02
:100D7800A64509D91CEB040403F1FF3780F08280F3
:100D8800A6457FD9023B644443EA0040A4EB0E0425
:100D9800A0FB02E7BC427346B94663D360D05DB19D
:100DA800B8EB030264EB090404FA06F622FA01F32D
:100DB8001E43CC40C5E9006400214CE7620848089E
:100DC80042EAC1710B0C43EA00438AB242EA034289
:100DD800B3FBF6F1E407B4463746B6461F23B0FB2B
:100DE800F6F0D21B41EA004161E7614614E710467C
:100DF80028E7C3F1200120FA01F29E4027FA01F109
:100E08009F403A434FEA164E1FFA86FCB1FBFEF7A5
:100E18000EFB1710110C41EA004107FB0CF888453E
:100E280004FA03F43AD9711807F1FF3001D2884562
:100E38001FD8A1EB0801B1FBFEF808FB0CF70EFB6D
:100E4800181192B242EA0142BA422FD2B21808F1FE
:100E5800FF31C6D2BA42C4D2A8F102013244C0E777
:100E6800F0459CD2BEEB020367EB0C070138B9468C
:100E780095E7A6EB08084144B81EB1FBFEF808FB4D
:100E88000CF7DCE73B467FE7504667E70846FBE69A
:100E98003444023832E7023F32441BE7A1EB080131
:100EA8003846B1FBFEF808FB0CF7C8E7414698E75F
:100EB800704700BF0D48854603F0EEF80C480D4911
:100EC8000D4A002302E0D458C4500433C4188C429D
:100ED800F9D30A4A0A4C002301E013600432A24203
:100EE800FBD307F0B7FC00F027FCFEE700800020EA
:100EF8000000002094030020C894000894030020F8
:100F0800701A0020FEE7000070B50446C36C406903
:100F180098470023656DA4F8643084F860306069F0
:100F280004F11C012B460422BDE87040184700BF9D
:100F380010B40B780A7991F802C01E4CDB0143EA21
:100F480002134A7843EA0223CA7843EA8C3343EA15
:100F58004253DAB242F0050223F07041A25C82EA01
:100F68001122D2B2A25C82EA1142D2B2A25C124C25
:100F780082EA1162A25C43EA027343F0050303624A
:100F880072B6836C4BB162B690F8243013B9022361
:100F980080F824305DF8044B704700F120010323EA
:100FA80080F82430816462B60422836D5DF8044BB6
:100FB80040691847008D0008F08C000830B44B01D8
:100FC80090F860C090F863401D4D43EA011343EA6E
:100FD80002330CF0010143EA811343EAC11304F020
:100FE8000F0443EA0423DAB2164C42F0060243F037
:100FF8000601A25C82EA1322D2B2A25C82EA134200
:10100800D2B2A25C82EA1363EB5C41EA0373036227
:1010180072B6836C43B162B690F8243013B90223D8
:1010280080F8243030BC704700F12001032380F899
:101038002430816462B60422836D406930BC18474D
:10104800F08C0008008D00080A2A09D090F8363084
:10105800012B1DD990F83E30012B0DD90020704787
:1010680090F82E30012BF9D8836A012204330B60E3
:1010780080F82E2001207047836B00F138024FF072
:10108800010C043380F83EC002640B6001207047F5
:10109800036B00F130024FF0010C043380F836C0C6
:1010A80002640B6001207047844690F864000228AF
:1010B80001D00220704743EA021041F8040C9CF862
:1010C8006C00012804D14FF6CA608852023292B2ED
:1010D8000A2B05D19CF8100078B300208CF810007A
:1010E80051F8040C70B5334DC4B204322E5DC0F310
:1010F80007247440A1F1040E2E5DC0F30744744028
:1011080092B22C5DC0F303656C402B4D2C5D40EA18
:10111800047041F8040C72B6DCF84810E9B162B604
:10112800092B0CD00A2B31D02BB99CF824308BBB5F
:1011380002238CF82430002070BD01207047DCF8B1
:10114800403019688E4514BF03200020DCF8441095
:1011580069B3022199719A8070BD092B22D00A2B9C
:101168004FF003030BBF8CF82E308CF824300CF1B1
:1011780028030CF12003CCF8483062B6DCF81400E0
:10118800DCF85830714698470020D5E79CF82E3097
:10119800012B01D0032070BD02238CF82E30ACF84F
:1011A8002C20C8E7DCF8403003219971E3E7CCF83C
:1011B8004430CEE7008D0008F08C000810B590F898
:1011C8002430032B044613D0826C0021917190F8CF
:1011D8002E20022A13D0022B1DD100F12001836D8D
:1011E8008164042240699847032384F8243010BDA1
:1011F80090F82E300022022B80F824200BD104F125
:101208002800A36DA064A28DA16A60699847032392
:1012180084F82E3010BD72B6636CCBB10322A36480
:101228009A7119689A886069A36D984794F836305E
:10123800022B07D094F83E30022B03D000236364BE
:1012480062B610BD626C630068339B1A6364F7E78B
:10125800A364F5E72DE9F84F90F86150C2690023BF
:1012680004460B8095B190F8645080F86130012DE8
:101278005AD0022D11D02DB300256069636D042268
:1012880004F11C0198472846BDE8F88F90F86230B1
:101298001BBB00252846BDE8F88F856E052D00F09C
:1012A800DC80062D00F02881092DE5D190F860300A
:1012B800B0F85C20A5690133012084F860302074FF
:1012C8000A80DAE7836E052B7DD0062BD4D1C2F3D2
:1012D8000F322946FFF772FECEE703EB03231B020A
:1012E800C3F307228748884D82F0090243F00F01B3
:1012F800825C82EA1343DBB2C35CEB5C41EA0373B2
:10130800236272B6A36C002B00F0EA8062B694F8F0
:10131800243013B9022384F824300022236D606935
:1013280084F862209847B4E7816E05290AD0062917
:10133800A2D1C2F30F322946FFF740FE022384F8F8
:10134800643099E7017F94F86C50407F94F86D60A1
:1013580094F86E7094F86FE0C90900F03F00A94254
:101368008C4628BFAC46B04280466CF3070328BFC2
:10137800B046C2F3863C68F30F23BC45C2F3465817
:10138800E14628BFB946F04569F31743C14628BF6F
:10139800F14669F31F63A942E3660BD8B04209D846
:1013A800BC4507D8F04505D894F87030C2F302124E
:1013B800934202D0002384F8643004F16C01204683
:1013C800FFF7B6FD58E7007F94F86C6094F81DC0ED
:1013D80094F86D7094F86E8094F86FA0C0090CF0C2
:1013E8003F0CB0420346C2F3863928BF3346BC459A
:1013F80063F30705C2F3465B634628BF3B46C14516
:10140800494663F30F2528BF4146D345DE4661F3BD
:10141800174528BFD6466EF31F65B042E566CCD89F
:10142800BC45CAD8C145C8D8D345C6D894F87000B9
:10143800C2F302129042C0D14A1C0133D2B2DBB2CD
:1014480052014FEA8E1E5B010121A281A4F80EE031
:10145800A4F85E3084F86410AFE7007F94F86CC09D
:10146800657F94F86D6094F86E7094F86F80C00989
:1014780005F03F0560458646194628BFE646B54251
:10148800A9466EF3070128BFB146C2F3863E69F349
:101498000F21BE45C2F34659F24628BFBA46C14598
:1014A8006AF31741CA4628BFC2466AF31F616045FE
:1014B800E16604F16C010DD8B5420BD8BE4509D8D8
:1014C800C14507D894F87030C2F302129B1AB3FAD8
:1014D80083F35B0984F864302046FFF729FDCBE6E7
:1014E80004F12001032384F82430A16462B60422A5
:1014F800A36D6069984710E7C2F30F320121FFF727
:101508005DFDB9E6008D0008F08C000810B590F874
:101518006530044643B1012B00D010BD002280F88D
:10152800652080F8613010BDC1691F4ACBB2D35C19
:1015380083EA1123DBB2D35C83EA1143DBB2D35CC9
:1015480083EA1163D35C5BB9037F03F00F03062BB7
:10155800836609D8042B1FD9012384F8613010BD94
:10156800042380F8623010BD092B15D1838B1B0929
:10157800A0F85C30002BEFD0B0F85E209A420FD371
:1015880090F86C208169406903EB4202636D9847CB
:10159800012384F8653010BD012384F8623010BD42
:1015A800022380F8623010BD008D00080146002239
:1015B80080F86520436D406904221C31184700BF3C
:1015C80000F038000838C0B210289ABF014B185CE8
:1015D80000207047008E000800F03803102B03D05D
:1015E800344B05200B60704720F00700B0F5156FED
:1015F80083B259D010D8B3F5096F50D01BD8B3F5C2
:10160800016F47D0B3F5056F2BD0B3F5FA6FE7D16B
:10161800294B00205B68E5E7B3F5216F2BD015D87F
:10162800B3F5196F31D0B3F51D6FD9D1224B5B6873
:1016380000201233D6E7B3F50D6F21D0B3F5116F43
:10164800CED11D4B5B6800200A33CBE7B3F5256F7D
:101658000CD0B3F5296FC3D1174B5B680020183342
:10166800C0E7154B5B6800200433BBE7124B5B688F
:1016780000201633B6E7104B5B6800201433B1E73F
:101688000D4B5B6800200833ACE70B4B5B68002010
:101698000E33A7E7084B5B6800200233A2E7064B2E
:1016A8005B68002006339DE7034B5B6800200C3322
:1016B80098E700BFB00300202407002000000000C6
:1016C80010B594B03822002106A807F0B5F800201C
:1016D800CDE90100CDE90300059003F0BBFE9FEDC5
:1016E800147B0622022303240F925521082206A800
:1016F8008DED067BCDE90D34CDE91012CDE912331D
:1017080003F022FF08B172B6FEE7042103460F2258
:101718000DEB0100CDE90124CDE90333059304F075
:101728008DF908B172B6FEE704F0B6FA14B010BD30
:1017380001000000000001002DE980480024ABB042
:1017480002F0DAFCFFF7BCFFCDE91D44A64D1F945B
:10175800EB6CA64843F00403EB64EB6C03F0040362
:101768000493049BEB6C43F02003EB64EB6C03F0F5
:1017780020030593059BEB6C43F00103EB64EB6CD2
:1017880003F001030693069BEB6C43F00203EB6442
:10179800EB6C03F0020307934FF40052079B1B9274
:1017A8004FF404131BA91C9303F0A6FCAB6C43F085
:1017B8000403AB64AB6C03F004030293029BAB6CB1
:1017C80043F00203AB64AB6C0E9403F002032146B2
:1017D80003933C221BA8039BCDE90F4407F02CF888
:1017E8002022214613A807F027F8814B1A46C3E99F
:1017F8000144C3E90B441C619C8383F8244083F8AB
:101808003840DC6383F840404FF400474FF0A04372
:101818000125042402261046C2E905541360D76046
:10182800166202F093FC08B172B6FEE70E900EA99C
:101838006F4803F0C1FA08B172B6FEE76D4BADF818
:101848009000CDE91F408DF892008DF89C004FF074
:1018580080084FF0090A4FF07F0965481D951BA9BC
:10186800CDE92588CDE91B3A2396CDF8789002F08A
:10187800C1FF08B172B6FEE75F495D4840F20F1339
:10188800CDE91B131BA902F0B5FF08B172B6FEE73C
:101898005A4A189006235648179413A9CDE91549B2
:1018A800CDE9132302F04CFD08B172B6FEE7DFF86C
:1018B80068B14F480C2313A9CDE913B302F040FDDA
:1018C800014608B172B6FEE7DFF850B101903C223C
:1018D8001BA806F0B1FF0199494ACBF80C7058468D
:1018E800CBE90111CBE90415CBF81840ABF81C1073
:1018F800CBF820508BF824108BF83810CBF83C101C
:101908008BF84010CBF8002002F020FC08B172B62A
:10191800FEE7394B2090ADF890008DF892008DF8D5
:101928009C001BA95846CDE91B3ACDE91D59CDE9C4
:1019380025881F94239602F05DFF08B172B6FEE772
:1019480040F20F131C931BA92E4B1B93584602F011
:1019580051FF08B172B6FEE72B4A2C4B13601046B4
:1019680003F08EFA08B172B6FEE70024342221464D
:101978001BA8CDE90E44CDE91044CDE91344CDE9C7
:101988001544CDE91744CDE90944CDE90C44129436
:1019980008940B94199406F04FFF1D4A1D4B1360D1
:1019A8004FF0200E4FF4A653C2E902E3546094614D
:1019B8004FF4807301241046C2E9043404F088FB14
:1019C80008B172B6FEE7124804F002FC08B172B61C
:1019D800FEE7062710230E480EA9CDE90E7304F082
:1019E80075FCE8B172B6FEE7001002400008004836
:1019F800B8060020020030048000501D0400600872
:101A0800000100504000201924060020000C02406C
:101A1800D8050020002C0140000180214C06002040
:101A2800CDE909007025AE48089508A904F042FEE2
:101A380008B172B6FEE70BAAA9480D942146CDE974
:101A48000B4404F0D7FE024608B172B6FEE7CDE9B2
:101A58001500CDE91700199060264FF42663A048B9
:101A680013A9CDE9136304F03FFD08B172B6FEE790
:101A78009B48042213A904F037FD08B172B6FEE7AB
:101A88009748082213A904F02FFD08B172B6FEE7A3
:101A980041F2BF43924813A90C22CDE9135304F035
:101AA80023FD034608B172B6FEE74FF400611B91AF
:101AB8004FF480611C917221CDE91D314FF480549F
:101AC8004FF40051CDE91F414FF000710322CDE9D9
:101AD8002331834827931BA9CDE92123CDE9252369
:101AE80004F03AFE08B172B6FEE77D4801F046FC04
:101AF8007C487D49016000234FF4E1120C25C0E9C0
:101B08000233C0E90435C0E90633C0E9083342604E
:101B1800836205F019FA014608B172B6FEE771480A
:101B280005F064FA014608B172B6FEE76D4805F0A3
:101B38009FFA08B172B6FEE76A4805F039FA04461A
:101B480008B172B6FEE701F0B9F901220321262097
:101B580003F0C2F9262003F0F9F901220421182024
:101B680003F0BAF9182003F0F1F9224603213920CD
:101B780003F0B2F9392003F0E9F922462146192089
:101B880003F0AAF9192003F0E1F9224602211220F4
:101B980003F0A2F9122003F0D9F9224603212820E4
:101BA80003F09AF9282003F0D1F9504B1E94DA6C0F
:101BB8004F48504E42F00202DA64DA6C02F0020238
:101BC8000E920E9A1A6E42F480421A661B6E03F445
:101BD80080431393C0220223CDE91B2313990723C3
:101BE80001221BA91F931D9203F086FA4248B46292
:101BF8004FF4E133C6E900033046C6E90244C6E9BA
:101C08000445C6E90644C6E9084405F09DF908B14B
:101C180072B6FEE7304605F0CBF907460028F7D143
:101C280001463C223548354C06F006FE02F088FA9B
:101C38000546334805F0C0FBA0F1C80292B2B92AA4
:101C480062D894F8352082B9F92840F23A8294F89B
:101C58003630002B00F0BA81A36BED1A40F6AB5377
:101C68009D4284BF012384F835303368DA6911074F
:101C780040F0B1813368DA69920640F153815B6ABA
:101C88002278DBB2002A4BD0012A41D061784A1C65
:101C980021448B70D3B21F2B6370EBD9002294F8C8
:101CA8002100184927801346013311F8015FDBB280
:101CB8001F2B82EA0502F7D1904237D0238D4FF6C9
:101CC800FF7293421CBF0133238500F081FA4FF461
:101CD8008073A4F833304FF44073A4F82330C9E775
:101CE800D8050020440500200044004000100240B0
:101CF80000040048F003002000380140B40300202D
:101D080054010020B5030020A4F83570A763ACE7A0
:101D1800552B00F09281AA2B0CBFA3702770A9E75E
:101D2800AA2BA7D1A37001232370A3E702F008FA16
:101D380023796279A179D4F80880022B814600F0D2
:101D48001481238D4FF6FF7293421CBF0133238504
:101D580000F03EFA4FF48073A4F833304FF4A063D8
:101D6800A4F82330202200211BA806F065FD02F00C
:101D7800E7F994F8325035B1E26A831AB3F5967FE1
:101D88008CBF0025012500F041FA804600F03EFA9C
:101D9800824600F035FA002840F04C81AAF10A0A80
:101DA8005FFA8AFABAF1010F8CBF4FF0000A4FF0C0
:101DB800010AB94894F8349005F0FEFA41F69912F0
:101DC800904203469CBF00EB80035B00B34894BF7E
:101DD8001FFA83FB4FF6FF7B05F092FC00EB8000B7
:101DE800420092B2019200F00BFA94F8333094F862
:101DF8002410019A49EA0A09EDB223B1B9F1000F9A
:101E080001D145F0020545EAC905EBB294F8345012
:101E180035B1012900F08380022901D143F0100374
:101E2800B8F1060F08BF43F06003BAF1000F02D003
:101E3800002908BF0521258D94F822C08DF87A70F5
:101E480010F0080F4FF0000065F307004FEA152562
:101E580065F30F2061F317404FF000054FF00001C4
:101E680063F307016BF307054FEA1B2363F30F25A1
:101E7800E38C6CF30F2163F317414FEA132363F3E9
:101E88001F6194F82330CDF86F1062F317454FEABD
:101E9800122263F31F6062F31F650CBF0123032343
:101EA80094F835208DF881304AF65523002AADF88C
:101EB8006C304FF002038DF86E304FF000020CBF0B
:101EC800C023E0238DF88930CDF87D50CDF873001C
:101ED8001BA91346013311F8010BDBB21F2B82EA51
:101EE8000002F7D18DF88B206D48052320221BA90D
:101EF80004F0D6FC00283FF4BDAE238D4FF6FF72E8
:101F080093421CBF0133238500F062F94FF48073BC
:101F1800A4F833304FF4A063A4F82330AAE643F0C2
:101F280004037DE794F832301BB194F83430002B69
:101F38006ED094F83330002B3FF478AE00F066F999
:101F4800054600F05DF928B9A5F10A03DBB2012BBB
:101F58003FF66CAE00F03CF94FF48073A4F83330D0
:101F68004FF4A063A4F8233060E694F83200E379D4
:101F780008B1012A66D0012084F82230E38C84F865
:101F880032004FF6FF708342C4F82C9001D0013321
:101F9800E384082A40F08A8000295ED1414806235C
:101FA80010F8015F0133DBB2002D56D11F2BF7D19A
:101FB80000F00EF984F8335084F8235000F01AF931
:101FC80084F8345084F824502585CBE60123A56392
:101FD80084F8363049E6150744BF082119625007CE
:101FE80044BF04211962910744BF02211962D20734
:101FF80044BF01221A62DA692780950648BF5B6AE6
:10200800238D4FF6FF7293421CBF01332385A1E74E
:1020180002F096F8E36AC31AB3F5967F89D900F0FF
:10202800D7F84FF48073A4F833304FF40073A4F852
:102038002330FBE54FF0010ABBE6E37040F20223D0
:10204800238017E6032921D084F82230E38CC4F8D2
:102058002C904FF6FF70834299D194F8343073B9BD
:1020680011480E2310F8015F0133DBB2002D7FF415
:102078006FAE1F2BF6D142BB00297FF469AE00F08A
:10208800A7F884F8337084F823706BE694F822007C
:102098009842D9D155E600BF5401002078010020AC
:1020A800F0030020BB030020C30300209007D4D511
:1020B80000F08EF84FF48073A4F83330A4F823307E
:1020C80050E684F83620A263CFE5012A7FF440AEBB
:1020D80003297FF43DAE08F1FF324CF24F339A42A8
:1020E8003FF636AE00F092F8054600F089F88246D1
:1020F80000287FF42DAEA5F10A03DBB2012B7FF691
:1021080027AE2E4805F058F905462C4805F054F935
:10211800A0F1C80292B2B92A38D894F835207AB911
:10212800F92847D994F83630002B3DD0A36B40F6F8
:10213800AB52A9EB030393422CD9012384F8353021
:10214800B5F5C17FBFF404AE94F833303C254FF4A5
:102158007A7205FB08F5B5FBF2F50622B5FBF2F538
:102168002DB21BB1B4F93030AB4205D040F6B831CE
:10217800284600F033F8258600F048F878B10123A6
:1021880084F833300323A4F82330EBE5A4F835A012
:10219800C4F838A0B5F5C17FFFF4E4ADD8E500F088
:1021A80011F80028EBD1D3E50123C4F8389084F85E
:1021B8003630EFE784F83670A763EBE75401002068
:1021C80072B6FEE7014B186800F084B814190020B5
:1021D800014B186800F094B81419002010B4044C8E
:1021E80003460A4620685DF8044B194600F024B8F7
:1021F80014190020014B186800F09CB8141900202D
:10220800014B186800F064B814190020014B1868D5
:1022180000F05AB81419002010B400240473C0F850
:102228000E40C48280F8244004830462C0E900128E
:102238005DF8044B836070474FF0010C40F20133A6
:1022480080F80CC0C181C282838470474FF0020CB1
:1022580040F2014380F80CC00182C2828384704737
:1022680082B0032240F201430273C0F81210838443
:1022780002B07047038CB0F822C00B4323EA020374
:1022880041EA0C0103844184704700BF90F8243070
:10229800012B00D0704710B5037B012B044606D0F4
:1022A800023B012B0BD8022384F8243010BDC28ACC
:1022B800B0F90E10806A04F07FFF0028F3D10323E1
:1022C80084F8243010BD00BF407E7047408C7047B2
:1022D800008C704710B50446FFF7F6FF08B10020E0
:1022E80010BD2046FFF7F2FF0028F8D12046FFF77F
:1022F800EFFF0028F3D10120207684F8240010BDD8
:1023080038B50546FFF7E0FF04462846FFF7DEFF2D
:1023180008B1002038BD2846FFF7DAFF0028F8D1B9
:102328000C2C18BF002C14BF01200020F1D005236D
:102338002B7638BD10B50446FFF7C6FF0B2801D031
:10234800002010BD2046FFF7C3FF0028F8D1022364
:1023580023766084012010BD438C008C43EA004042
:10236800704700BF90F82500704700BFB0F90E0015
:10237800704700BFC08A7047806A04F025BF00BF5D
:10238800806A04F00DBF00BF836A9FED067AD3ED23
:10239800137A67EE877AFDEEE77A17EE903A18B26D
:1023A800704700BFABAA2A3E4368186883B26FF330
:1023B8000F0082B0184302B0704700BF43685868E6
:1023C80083B26FF30F0082B0184302B0704700BFAA
:1023D8004368986883B26FF30F0082B0184302B065
:1023E800704700BF4368D86883B26FF30F0082B0AC
:1023F800184302B0704700BF4368D3F8120083B295
:102408006FF30F0082B0184302B070474368D3F8E7
:10241800160083B26FF30F0082B0184302B0704702
:102428004368B3F91A007047DFED977AB4EEE70A0C
:10243800F1EE10FA86B039DBDFED946AB4EEE60A05
:10244800F1EE10FA70EE677A00F285809FED907ACF
:10245800DFED8F6A8F4A27EE877ABCEEC77A8DED5B
:10246800027A9FED8D7A029B77EE677AFF2B67EEF3
:10247800A67A88BFFF23FCEEE77A88BF0293029B07
:10248800CDED037A0399DBB202EB8303FF2993EDC9
:10249800007A84BFFF230393039BDBB202EB830321
:1024A800D3ED000AB0EE470A06B07047B5EEC00A91
:1024B800F1EE10FA65D9DFED787AB4EEE70AF1EEBD
:1024C80010FA40F2DE80DFED757AB4EEE70AF1EE3D
:1024D80010FA40F2A980DFED727AB4EEE70AF1EE65
:1024E80010FA6FD8F0EE407A9FED6C7ADFED686AEB
:1024F80037EEC77A27EE267ABCEEC77A8DED027AD8
:10250800029BFF2B01D9FF2302939FED657ADFED34
:10251800606A029B5F4A77EE677ADBB267EEA67A5B
:1025280002EB8303FCEEE77A93ED007ACDED037AB4
:10253800039BFF2BB1EE477A01D9FF230393039B3B
:10254800DBB202EB8303D3ED000AB0EE470AF1EEEB
:10255800600A06B07047DFED536AB4EEE60AF1EEA2
:1025680010FA63D9DFED506AB4EEE60AF1EE10FA1C
:10257800BAD9DFED4E6AB4EEE60AF1EE10FA91D858
:102588001EE0DFED4B6AB4EEE60AF1EE10FA89DBE5
:102598009FED487AB4EEC70AF1EE10FA70EE277A8A
:1025A8007FF654AF9FED447AB4EEC70AF1EE10FA05
:1025B8003CD99FED427AB4EEC70AF1EE10FA93D9EE
:1025C800B0EE670ADFED307A9FED317A77EEC07AA8
:1025D80067EE877AFCEEE77ACDED027A029BFF2B55
:1025E80001D9FF2302939FED2E7ADFED297A029B12
:1025F800284A30EE470ADBB220EE270A02EB8303B3
:10260800BCEEC00A93ED007A8DED030A039BFF2B05
:1026180084BFFF230393039BDBB202EB8302D2ED5B
:10262800000AB1EE477A3DE7F0EE407A9FED1B7A5B
:10263800DFED176A37EE677A27EE267ABCEEC77A9F
:102648008DED027A029BFF2B01D9FF230293DFED68
:10265800126A9FED0F7A029B0E4A77EEE67ADBB29A
:1026680067EE877A02EB8303FCEEE77A93ED007A54
:10267800CDED037A0399FF297FF661AFFF2303931A
:102688005DE7F0EE407AE1E60000B4430000E14384
:10269800610B3640B08E00080000B442000034439D
:1026A800000087430000074400801D4400003444B4
:1026B8000000B4C3000087C3000034C30000B4C2E4
:1026C800214B2DE9F041214EDFF8B880204CC8F8A5
:1026D8000030002705461846377005F06BFC1D488A
:1026E800FEF712FC1C4B1D48186005F0AFF800F00F
:1026F80003FC1B4800F09EFC204605F0C7FF194B61
:1027080019481B68DC60194C00F094FC184804F068
:10271800BFFFD8F80030174A39462046FFF77CFD3E
:102728003A4653212046FFF787FD134A134B10689A
:102738002C60134A1860E261A06204F0DBFC0123FC
:102748003370BDE8F08100BFA001002050070020D1
:1027580054010020AC020020600700207000002017
:10276800680100205001002090010020240700206B
:10277800780100206407002000000020580700208E
:10278800600200205C070020014B1880704700BFE2
:1027980052070020034B188880B2B0FA80F0400935
:1027A800704700BF5207002038B55A4C206805F022
:1027B80013F85948FFF78CFD18B1574A0A23537686
:1027C80038BD5548FFF782FD70BB534B5B7E132B1A
:1027D800F6D801A252F823F0DF280008C92700081C
:1027E800C9270008C9270008C3280008C927000806
:1027F800A9280008C927000887280008C927000851
:102808003128000877280008C9270008C9270008C8
:10281800C9270008C92700085728000847280008C2
:10282800C9270008392800083B4A0B23537638BDCE
:10283800394A137E052B5ED00623537638BD364BB6
:102848001B7E052B57D0344A0423537638BD324BB0
:102858001B7E052BF7D1314B186805F017FB206854
:1028680004F0D6FF4FF44870FFF78EFFEBE72A4BD2
:102878001B7E022BA4D1284A0023138338BD284B82
:10288800186805F047F8274B2749186804F03EFCFC
:10289800FFF780FF002893D01F4A0023537638BDE6
:1028A8001D4B1B7E052B26D01B48FFF7EFFC1D4B4D
:1028B8001868BDE8384004F08BBC174D2B7E052BFB
:1028C80019D02846FFF7E2FC154B186805F010F8F8
:1028D80006236B7638BD104B1B7E03F0FD03012BDE
:1028E8007FF46EAF0F4B1049186804F00FFC0A4ACA
:1028F8000423537638BD094B186805F0C7FA2068D9
:1029080004F086FF4FF44870FFF73EFF024A0823A1
:10291800537638BD50010020240700205C070020B2
:102928006007002058070020540100201A4B1B782C
:10293800012B00D0704770B5184C23889BB263B147
:102948002388013B9BB22380154A13889BB21BB195
:102958001388013B9BB2138070BD124DFFF724FF13
:10296800294651F80C0B83689847686030B12946AE
:102978000A2251F8080B0368984710B903232380EB
:10298800E2E7284600F0EEF92868EA894668A9686F
:102998000A23B047F2E700BF500700205407002081
:1029A800520700209C02002010B5114C206804F04A
:1029B800D3FB206804F066FC01280DD00D4A0E48B0
:1029C800136890F829100133136009B9002010BD6D
:1029D80004F0F8FC002010BD084B0446186804F009
:1029E80099FF074800222146FFF744FCE6E700BFAD
:1029F80058070020341900207002002060070020CA
:102A08002407002070B5054690B1254B186800F0E2
:102A1800F5FA0146234C2C2303FB0544CA43204600
:102A280092B2FFF727FC2046FFF796FCD8B970BD95
:102A38001D4800F065FB01461C4804F03BFE184B9E
:102A48000646186800F0DAFA0446194800F058FB00
:102A58000146184805F020FE064306F00E0644EA33
:102A6800060189B2D6E7144B186804F053FF134BDC
:102A78001049186804F04AFB114890F8293033B916
:102A8800104B53F82500BDE8704004F0C1BE04F0B7
:102A980057FD0C4B53F82500BDE8704004F0B8BE54
:102AA8005C07002024070020900100207801002006
:102AB800680100205401002060070020580700200A
:102AC800700200205001002008B5044B1B78012B30
:102AD80000D008BD0020FFF795FF08BD5007002073
:102AE80008B5044B1B7803B908BDFFF71FFFFFF7B4
:102AF800EBFF08BD5007002008B5054B186804F027
:102B080009FFBDE80840034800228021FFF7B2BB57
:102B1800600700202407002008B5FFF777FB00B9FD
:102B280008BDBDE80840FFF753BB00BF30B44FF005
:102B380090432B4A80218AB0DA61D961DA61DA6977
:102B480009924FF48071274A0998DA61D961DA61EC
:102B5800D969254A089101204FF00111089CD161DB
:102B6800D061D161D16907914FF400704FF4813180
:102B7800079CD961D861D961D969069102201B499E
:102B8800069CD161D061D161D26905924FF480640D
:102B98004FF48232059DDA61DC61DA61DA69049208
:102BA8004024134A049DDA61DC61DA61DA69039230
:102BB800039AD961D861D961DA69029204210D4A70
:102BC8000298C3F81C28C3F81C18C3F81C2803F57E
:102BD8000063DB690193019B0AB030BC704700BFFA
:102BE800800001000001010000040048020001000B
:102BF80040000100040001002DE9F04F89B085680C
:102C0800334B06934FF00008324B4468B0F90C2060
:102C1800ADF816800646A0F80E806F18CDF80C8027
:102C28000793C5F10109A2F1020A002A0FFA8AFEE8
:102C38000DF116031FFA8AFA36DD34F802CB0DF1CE
:102C480020082CF007000CF0070B1CF0060F22469A
:102C580080B20CF0380108EB8B0B2DD1CDF800E0D9
:102C68005BF808BCD847BDF8161005EB0903DBB2C2
:102C7800AAEB0102012B12B20C4412D0BD4221D0A2
:102C880005F8010BF3890133F3810028CBD007281D
:102C980012D001230A280393C5D1039809B0BDE8CF
:102CA800F08F002AEAD10390039B002BF5D10398FB
:102CB800F38109B0BDE8F08F01230393039809B0AD
:102CC800BDE8F08F08230393039809B0BDE8F08F9F
:102CD800FD360008013800082DE9F04786B00023CA
:102CE800ADF80E30C381B0F80C801C4B04931C4B1C
:102CF800D0F8049086680593B8F1000F29D00746EC
:102D08000CB24D4612E000945EF808ACD047A8EB30
:102D1800050319FA83F39BB2E0B9BDF80E10FA89DE
:102D2800641A0A440E44FA8124B29BB135F802CBE6
:102D38000DF1180A2CF007000CF0070E1CF0060F16
:102D48000DF10E03324680B20CF038010AEB8E0EFC
:102D5800D9D0012006B0BDE8F08700BF653A000869
:102D6800993B000870B504464568226835F8023B6F
:102D780092898089013A91B203F47F42023823F0A4
:102D8800070CB2F5807F82B080B21FFA8CFC38D075
:102D9800484EA081013B03F0070365602C20002505
:102DA800BCF1380FE58100FB036663D8BCF1380F2E
:102DB8001ED8DFE80CF04D1D1D1D1D1D1D1D551DC8
:102DC8001D1D1D1D1D1D5A1D1D1D1D1D1D1D671DA4
:102DD8001D1D1D1D1D1D311D1D1D1D1D1D1D371DED
:102DE8001D1D1D1D1D1D3F1D1D1D1D1D1D1D4700DC
:102DF80000230220A268D054E3890133E38102B0A2
:102E080070BDCCF3C40C0023BCF1010FA081656038
:102E1800E3813AD90D20EDE73046FFF771FAE389EF
:102E28000020E7E73046FFF74FFA06283AD0E38953
:102E38000020DFE73046FFF747FA0028ECD1E389A6
:102E48000120D7E73046FFF775FAE3890020D1E77C
:102E5800A36804210122E1811A70E3890020C9E7EF
:102E68002046FFF7C9FEE389C4E72046FFF734FF91
:102E7800E389BFE7BCF1780FBAD102F075F8E389AE
:102E88002846B7E700230120B4E70B4B53F82C6022
:102E980076B1A36800930AB204F10E032946B0473D
:102EA800E389A7E73046FFF767FAE3890020A1E73F
:102EB8003346AFE7240700208807002008B502F052
:102EC800C1FE0A4BA3FB0030C00902F05FF8084BB3
:102ED800002219684FF0FF3001F0FEFF0548FFF7A8
:102EE800EFFBBDE80840FFF721BE00BFD34D6210DD
:102EF800400300201419002010B44FF0A0434022D2
:102F080083B01A605A68234942F040025A608B68BD
:102F1800214A23F4401323F0700343F010038B601D
:102F28008B6823F4803323F0070343F006038B6098
:102F3800936DDB0716D4936D43F001039365936D8E
:102F48004FF0804103F001030193019B4B6943F06B
:102F580001034B61936D23F00103936503B05DF8A2
:102F6800044B70474FF080430C485A6859680C4C22
:102F7800014041F020015960596941F0010159614E
:102F88005968224001400A435A6003B05DF8044B77
:102F9800704700BF002C0140001002408FFFFFFD6A
:102FA80070000002013270B552086FF00206550138
:102FB8000661002293F800C0BCF10F0F02F1010E68
:102FC8000CD80469A407F5D51FFA8EF2954206615C
:102FD800F0D81C780F2CEDD801230B8070BD00BFF2
:102FE8004A6C03464FF0010C42F480624A64783020
:102FF80083F881C083F883C0704700BF034690F808
:103008008100A8B1002283F881204221022093F890
:1030180080201AB1002283F88020084693F8822085
:103028002AB140F48060002280B283F88220704781
:103038004021ECE72F490A78032A52D810B52E4CC4
:10304800036844F82200027301320A709A68D407B0
:1030580022D45A68042122F004025A6019605A687E
:10306800202122F020025A6019609A6822F040421A
:1030780022F03F0242F000429A609A68002AFCDB84
:103088001A68D10708D41D499A680A4042F001021B
:103098009A601A68D207F7D5196B21F00F011963E6
:1030A800017A01228A40092942EA816201EB410C36
:1030B80019D842EA0C524FEAD25C0CF0040C1433D3
:1030C800406853F80C10C2F304524FF0070E9040BA
:1030D8000EFA02F221EA0202024343F80C20012010
:1030E80010BD00207047ACF11E0C42EA0C5242F0B1
:1030F8000072E0E7181900201C190020C0FFFF7FAC
:10310800017A02680123092901EB410003FA01F35E
:1031180043EA816384BF1E3843EA0053116B94BFAE
:1031280043EA005343F000731B0D21F4F86103F4E4
:10313800F8630B4313630423116C1360936823F043
:10314800004323F03F0343F00403936013685B07D5
:10315800FCD5106C20F00F0080B2704700B50E4B04
:103168001A6E42F0010283B01A661A6E02F001026A
:103178000092009A9A6D42F080529A659B6D03F016
:10318800805301930420019B01F094FE03B05DF885
:1031980004EB02F0D1B900BF0010024000000000AB
:1031A80010B504469CB0002144220BA8CDE90611B5
:1031B800CDE908110A9105F03FFB2368B3F1A04F50
:1031C80004D0414A934245D01CB010BD4FF4004290
:1031D8004FF080530BA80B921A9302F065FD00285C
:1031E80068D13A4A13680133012B136009D1384B6F
:1031F800DA6C42F40052DA64DB6C03F40053019396
:10320800019B334BDA6C42F00402DA64DA6C02F0A8
:1032180004020292029ADA6C42F00102DA64DB6C70
:103228000620032103F00103CDE9060103930024DE
:1032380006A92848039B089401F05EFF0322032394
:103248004FF0904006A9CDE90623089401F054FFF9
:103258001CB010BD4FF400424FF080530BA80B92E6
:103268001A9302F021FD40BB184A13680133012B61
:10327800136009D1164BDA6C42F40052DA64DB6C45
:1032880003F400530493049B114B1248DA6C42F088
:103298000402DA64DB6C9FED0A7B03F004030593F8
:1032A80006A900238DED067B059A089301F024FFFB
:1032B8001CB010BDFEF784FF93E7FEF781FFD3E74C
:1032C8000300000003000000000100502C1900203A
:1032D8000010024000080048094B02689A4200D0DA
:1032E8007047D3F8482442F0080282B0C3F8482453
:1032F800D3F8483403F008030193019B02B07047E8
:10330800000C02400000000010B51B4A016888B09C
:1033180000239142CDE90233CDE90433069301D06D
:1033280008B010BD03F1804303F504339FED107B13
:103338001A6E42F400621A661A6E02F40062009273
:10334800009ADA6C42F00102DA64DB6C03F00103E4
:1033580001930122062302A94FF090408DED027BD4
:10336800019C0492069301F0C7FE08B010BD00BF8F
:103378004000000012000000002C0140D0B5204A97
:10338800016888B000239142CDE90233CDE90433C6
:10339800069301D008B0D0BD03F1804303F5043390
:1033A8004FF4F060DA6C42F00102DA64DA6C02F091
:1033B80001020092009ADA6C42F00202DA64DB6CD5
:1033C800022103F00203CDE902010193022602273C
:1033D800062402A94FF09040019B0694CDE90467AA
:1033E80001F08AFE032202230648069402A9CDE9C9
:1033F8000467CDE9022301F07FFE08B0D0BD00BF0D
:10340800002C01400004004870B5044698B0002123
:10341800442207A8CDE90211CDE90411069105F06F
:103428000BFA374B22689A4201D018B070BD0223BC
:1034380007A8079302F038FC00284DD1314B324ED3
:103448009A6D42F400329A659A6D02F40032009245
:10345800009ADA6C9FED267B42F00102DA64DB6C9D
:103468008DED027B9FED247B03F00103019302A9FC
:1034780007234FF09040019A06938DED047B01F0ED
:103488003BFE22491A220023C6E900123046802258
:10349800C6E90233C6E90423C6E90633336201F0FC
:1034A80095FDF8B91A4D1B49C4F880601B2200230A
:1034B800C5E90012284610218022C5E90213C5E992
:1034C8000533C5E90733B4622A6101F07FFD30B9DD
:1034D800E567AC6218B070BDFEF772FEAEE7FEF7A6
:1034E8006FFEF5E7FEF76CFEDCE700BFAFF3008088
:1034F8000C000000020000000000000000000000B6
:103508000044004000100240E40400201C04024073
:1035180084040020300402404FF0A04340221A6087
:10352800704700BF024B6FF001021A61FFF73CBA07
:10353800002C01400C4908B50B691A0605D56FF037
:1035480080030A480B61FFF74BFD07490B69DB0550
:1035580005D56FF4807305480B61FFF741FDBDE8A1
:103568000840FFF7E3B900BF002C0140A00100208C
:10357800444BDA69520610B509D5434943480A6BEA
:10358800402422F001020A631C62FDF717FE3D4B3E
:10359800D869DA69D9699B684C076AD5D8071ED5F6
:1035A800384B0E221A624FF0402202F5816353E82D
:1035B800003F23F0010302F5816040E80031002953
:1035C800F3D14FF0402202F5806353E8003F43F007
:1035D800100302F5806040E800310029F3D1294B3F
:1035E800DA691B68D20643D5DB0641D54FF0402285
:1035F80002F5806353E8003F23F0100302F5806072
:1036080040E800310029F3D14FF0402202F58163F0
:1036180053E8003F43F0010302F5816040E80031C0
:103628000029F3D14FF0402202F5816353E8003FAF
:1036380023F0400302F5816040E800310029F3D10E
:10364800104B5B6A4FF0402202F5816353E8003F5C
:1036580043F0400302F5816040E800310029F3D1CE
:10366800094B0A482022BDE810405A60FDF79EBF6A
:1036780010BDD907B3D502F0020200F008000243DA
:103688008ED1ACE70044004000040240AC020020A8
:1036980008B5FFF731FAFEE710B50D4C2378022B79
:1036A8000FD00133DBB20B4A237013689B0604D595
:1036B800202309485360FDF729FFBDE81040FFF7B4
:1036C8000FBA00F031FD01F07DFC0123EBE700BFEC
:1036D8003403002000040240AC020020044B5A6965
:1036E800920400D470474FF400525A61FFF714BA9D
:1036F8000004014010B40839BDF904C0202912D8CB
:10370800DFE801F017111111111111112111111117
:10371800111111112F11111111111111391111114B
:10372800111111114F0000221A8007205DF8044B77
:10373800704748284FF0010214BF052004205DF8A7
:10374800044B1A807047B0F5656F3BD044D9B0F58B
:10375800696F37D041F65832904214BF05200420D3
:1037680031E018284FF0040214BF052010465DF818
:10377800044B1A8070470121198092F9000038B370
:103788001FFA8CF003E0198012F9014F04B301F11C
:10379800010C81421FFA8CF1F5D304205DF8044B2B
:1037A80070471288023292B21FFA8CFC62451A8066
:1037B8001AD8A828F1D01BD820F040002828ECD02F
:1037C8000520B3E7002002225DF8044B1A807047F9
:1037D800002313700420E1E720F04000B0F5B26F39
:1037E80014BF05200420EEE700221A800A209DE776
:1037F800E828E5D1D1E700BF30B583B00839BDF975
:1038080018C01C46202912D8DFE801F01611111142
:103818001111111125111111111111114411111149
:1038280011111111511111111111111164000023FD
:103838002380072003B030BD482800F09A808828EC
:1038480040F092801378042B00F0AB80032B00F03B
:10385800E180002089E0B0F5196F158862D053D84F
:10386800B0F5156F00F0918000F2DD80B0F5016FC2
:1038780000F0BD8000F2BD80B0F5F26F00F0B780B7
:1038880000F2D98020F04000B0F5B26F14BF0520D7
:10389800042053E0582800F08D80982856D0182826
:1038A80014BF052004200423238003B030BD012168
:1038B800218092F900301BB31FFA8CF303E02180BA
:1038C80012F9010FE0B1481C994281B2F7D30420E4
:1038D80003B030BD1188023189B21FFA8CF39942C6
:1038E80021802FD8B0F5D47F66D044D8A828EED050
:1038F80000F28C8020F040002828E8D0052099E7C5
:10390800002313700420E3E7B0F5656F15D061D983
:10391800B0F5696F11D041F65833984214BF0520AD
:1039280004200BE04A48FEF75DFD03460193ADF81D
:10393800065047480199FEF793FC00200223238094
:1039480003B030BD002323800A2073E7B2F90030AA
:1039580040493F4881FB0321A1EBE371002209B2F2
:10396800FEF76AFC00209EE705200123238003B0B0
:1039780030BD0420F9E7B0F5A56FBFD13648911CDA
:1039880003B0BDE8304003F009BE3148FEF72AFD18
:1039980003460193ADF804502D480199FEF760FCE9
:1039A800CBE72B48FEF73CFD002201462848FEF7EE
:1039B8004DFC4EE7042076E7D2F802302549D2883C
:1039C80081FB0301A1EBE371214809B2FEF734FC46
:1039D80000202FE7B0F5256F09D026D8B0F51D6F68
:1039E80005D0B0F5216F14BF05200420A6E70420F8
:1039F800A4E7B0F50D6FFAD023D8B0F5056FF6D06F
:103A0800B0F5096F14BF0520042097E7E8283FF4B4
:103A18005EAF73E70E48FEF7B7FC002201460C487C
:103A2800FEF70AFC15E7052088E7B0F5296F14BFF3
:103A38000520042082E7B0F5FA6F14BF05200420A2
:103A48007CE7B0F5116F14BF0520042076E700BFAE
:103A580024070020ABAAAA2A7002002010B5A1F101
:103A6800080CBDF908E0BCF1200F12D8DFE80CF013
:103A78001B1111111111111127111111111111110E
:103A880022111111111111113511111111111111E9
:103A98001300072010BD282829D0128802320520DB
:103AA80092B21A8010BDBEF1000F1EDD01221A80ED
:103AB800052010BDBEF1030F15DD0422F7E7BEF1A6
:103AC800010F10DDB0F5656F5AD0B0F5696F14BFFE
:103AD8000520002002221A8010BD20282CD0602842
:103AE8000FD00022E3E7082010BD084610BD1FFADA
:103AF8008EFE0A21BEF10B0F118035D80C2208204A
:103B0800CFE7204C94F900000121198080B11FFAF9
:103B18008EFEA44608E002F8010B1988013189B22B
:103B280019801CF9010F18B17145F4D3062010BD96
:103B380000231370002010BD134C94F900000121DC
:103B480019800028F4D01FFA8EFEA44609E002F876
:103B5800010B1988013189B219801CF9010F00285D
:103B6800E6D08E45F3D8E1E7084948680C6809892A
:103B7800C2F80600C2F80240518100200C2290E7EA
:103B88000020A7E7A08E00087C8E0008708E000831
:103B980030B58FB01C46A1F10803BDF948C01546E1
:103BA800202B12D8DFE803F02B111111111111117C
:103BB80060111111111111113E1111111111111171
:103BC8005811111111111111140007200FB030BD37
:103BD800E82805F1020300F0178167D8682800F08B
:103BE800E380A82840F01A811FFA8CFC1022BCF14F
:103BF800110F2A8000F27A81122308206DE0BCF1AF
:103C0800000F40F3EE80482800F0ED80882840F04F
:103C1800B680AF48FEF7A6FB28700020012323805A
:103C28000FB030BDBCF1030F3DDD982800F01881BE
:103C380000F2DD80182800F0C180582840F0188173
:103C4800A348FEF79DFB00EB4000400028600020E1
:103C5800042323800FB030BDA02878D0E02859D0A5
:103C6800002323800520B1E7BCF1010F1BDDB0F56F
:103C7800116F00F05E8133D8B0F5016F00F0A380BA
:103C880000F2DE80B0F5BA6F00F04E81B0F5FA6F41
:103C980000F05681B0F5B26F40F03D818D4803F0D9
:103CA8008BFB288031E008200FB030BDB0F5947F41
:103CB80067D0B0F5D47F40F0B1808548FEF756FB59
:103CC80000EB40004300C5F802308148FEF752FB84
:103CD8000623E8802B800020082323800FB030BD06
:103CE800B0F5216F76D000F29E80B0F5196F00F024
:103CF8001481B0F51D6F00F02F81B0F5156F40F0FD
:103D08000A817348FEF76EFB288000200223238077
:103D18000FB030BD704B1A680123238002F12401D3
:103D280092F924207AB11FFA8CFC08E005F8012BDF
:103D3800238801339BB2238011F9012F1AB16345FF
:103D4800F4D3062042E700232B7000203EE7634AA5
:103D580001231168238091F90020002AF3D01FFA6B
:103D68008CFC09E005F8012B238801339BB22380E2
:103D780011F9012F002AE6D09C45F3D8E1E7052088
:103D88004CE71FFA8CFC0C22BCF10D0F2A8071D96C
:103D9800534A506815689168D268DA6058601D60A7
:103DA800996000200E2398E71FFA8CFC3C22BCF196
:103DB8003D0F2A8061D83E2308208EE74448FEF74D
:103DC800CBFA286043E74248FEF7EEFAC0F30F4308
:103DD8002B809AE73E48FEF70FFBC0F30F432B807A
:103DE80093E70846F2E63A48FEF76EFA14E741F61A
:103DF800583398423CD13B4B186803F00DFD8DEDCC
:103E0800010A019B2B6022E71FFA8CFC0E22BCF1F1
:103E18000F0F2A804FD8102308205EE72B88023323
:103E280005209BB259E7B0F5296F00F08E806AD85B
:103E3800B0F5256F6FD12648FEF7E8FA288064E7C9
:103E4800B0F5096F00F09280B0F50D6F00F0898031
:103E5800B0F5056F5FD11E48FEF7B0FA288054E729
:103E68001B48FEF791FA00EB400040002860EEE6A0
:103E78000520EDE60E2308202FE7174A126802F105
:103E88003001D2F800C055689068D2F80CE0C3F849
:103E98000CE010328A42C3F800C05D60986003F1FC
:103EA8001003EED11068516892689A6018605960E2
:103EB80000203E2311E70C4A126810685168956883
:103EC8009D601860596092899A810020102304E748
:103ED8002407002054010020540200205C02002026
:103EE800600200205001002058020020234A126876
:103EF800506815689168D268DA6058601D609960EA
:103F080000201223E9E6B0F5656F3FF4FEAEB0F588
:103F1800696F3FF4FAAE0520F8E61948FEF762FA31
:103F2800C0F30F432B80F0E6164803F0E9FB288026
:103F3800EBE61348FEF74CFAC0F30F432B80E4E698
:103F48000F48FEF731FA2880DFE60D48FEF75EFAE3
:103F5800C0F30F432B80D8E60948FEF74DFA2880B6
:103F6800D3E60748FEF734FA2880CEE60448FEF781
:103F780025FAC0F30F432B80C7E600BF500200208C
:103F8800240700207801002030B4026802F10801FB
:103F980051E8003F43F0010341E80034002CF7D119
:103FA800C168194D43686C5C234402F1240199608F
:103FB8004023136202F1080151E8003F43F0400337
:103FC80041E80034002CF7D14023136252E8003F47
:103FD80043F0400342E800310029F7D102F108011B
:103FE80051E8003F43F0800341E80034002CF7D14A
:103FF80001698368695C0B4402F1280040219860DC
:1040080030BC1162704700BF5C9300080369806888
:1040180010B40B4CE35CC458E40700EB030C0CD45D
:10402800CCF80C10DCF804106FF30F010A43CCF83D
:104038000420C25842F00102C2505DF8044B704798
:104048005C93000810B4C3680C4C4068E35CC45827
:1040580000EB030C24F00104C450CCF80C10DCF87D
:1040680004105DF8044B6FF30F011143CCF80410F2
:10407800C25842F00102C250704700BF5C9300086A
:1040880002681023136252E8003F43F0100342E82D
:1040980000310029F7D17047034AD2F8883043F439
:1040A8007003C2F88830704700ED00E038B50F4B58
:1040B8001B680BB9012038BD0D494FF47A720546CB
:1040C800B2FBF3F30868B0FBF3F000F05FFF0446BF
:1040D8000028EFD10F2DEDD8024629464FF0FF30CA
:1040E80000F0FAFE034B20461D6038BD3C0300205B
:1040F80038030020400300200A4A136843F4807301
:1041080010B50320136000F0D5FE0420FFF7CEFFA2
:1041180010B10124204610BD0446FFF71FF82046C1
:1041280010BD00BF00200240034A04491368096813
:104138000B441360704700BF301900203C03002077
:10414800014B1868704700BF3019002030B583B0A4
:1041580000230193002800F0B180C56D0446002DAE
:1041680000F0AF80226893689D0005D5936823F01E
:10417800204323F03F0393609368D80019D46B4B16
:104188006B481B6891689B09A0FB030321F0104151
:104198009B0921F03F0101335B0041F080519160A0
:1041A8000193019B2BB1019B013B0193019B002BC8
:1041B800F9D19368D90076D4E36D43F01003E36531
:1041C800236E012003432366936813F0040FE36D05
:1041D80070D1DB066ED4E36D23F4817343F00203E0
:1041E800E3659368DD0709D44FF0A0439B6813F09B
:1041F800010F504B9B6801D1D9077FD5E568E36B68
:1042080094F824102B43A5682B43657F012943EAC2
:10421800453343EA01435AD0E16A21B1256B01F4E1
:10422800787129430B43D568434929401943D16024
:104238001369616B23F040630B43136193681B0799
:1042480022D4D16894F83830257F21F480415B006E
:1042580021F0020143EA85330B432169D3601369D6
:10426800002941D043F480331361D2F8C0306FF392
:104278000D030B43C2F8C03094F84030012B45D0F1
:10428800136923F0010313616369012B24D0136BB5
:1042980023F00F031363E36D23F0030343F00103DB
:1042A800E36503B030BD936813F0040F4FF00000CE
:1042B800E36D8ED0E36D43F01003E365012003B096
:1042C80030BDFEF76DFF256684F858504AE7A16AAD
:1042D800013943EA41439FE7116B236A21F00F013B
:1042E800013B0B431363D6E723F480331361D2F801
:1042F800C0306FF30D03C2F8C030BDE70F496568E1
:104308008B6823F47C132B438B6077E71169636C0C
:10431800A56C6FF38A012B430B43E16C0B43216DB2
:104328000B4343F001031361AEE700BF38030020DD
:10433800632D3E05000100500740F0FF00030050C8
:104348002DE9F04190F8582082B00346012A4FF039
:104358000000019000F028811A68012083F85800B5
:104368009468670709D5DA6D42F02002DA65002201
:1043780083F8582002B0BDE8F08148684FEA901EE3
:1043880000F01F0C02F1300408680EF00C0EC0F3A8
:10439800846054F80E501F2600FA0CF006FA0CFC44
:1043A80025EA0C0C40EA0C0044F80E0094680868F2
:1043B80014F0040F94684ED126074CD48D68C0F3CE
:1043C80004560724C00DB440B5F1004F00F00400B6
:1043D8006FEA040400F0378102F11407B5403E5833
:1043E80034402C433C50506920F0004050610F6924
:1043F8000868D468042F054600F0FA80C4F3C104A5
:10440800650002F16004B04E54F827C000F0F8408F
:104418000CEA060606434869A840304340F00040CD
:1044280044F827000D698E6954F8250020F0807043
:10443800304344F825000E690D7F54F82600A5F195
:104448000105B5FA85F56D0920F0007040EA456070
:1044580044F8260008689468E50711D4CE689B4C98
:10446800D2F8B05006F01807FC40C0F31207044019
:1044780025EA07052C43C2F8B040954CA64245D022
:104488009449084201D1002071E7934C934DA168EB
:10449800A84201F0E07616D0914DA84213D0914D74
:1044A800A84200F08580904DA842ECD14902EAD498
:1044B8008E498A42E7D0A26822F0E072324342F481
:1044C8008002A260DFE70C02DDD4B2F1A04FDAD19E
:1044D800814987488A6822F0E072324342F4000238
:1044E8008A60026883499209A1FB0212920901328B
:1044F80002EB420292000192019A002AC3D0019A6B
:10450800013A0192019A002AF9D1BCE7002F5ED046
:1045180090FAA0F4002C00F0EF80B4FA84F401348F
:1045280004F01F04092C40F2E78090FAA0F4002C54
:1045380000F05281B4FA84F40134A40604F0F8447B
:1045480090FAA0F5002D00F04581B5FA85F5013502
:1045580005F01F05012606FA05F52C4390FAA0F090
:10456800002800F03581B0FA80F0013000F01F001B
:1045780000EB40001E38000540F000700443E50DD4
:10458800886805F0040502F11406C4F3045400FA1F
:1045980004F74FF0070C70590CFA04F420EA0400F1
:1045A8003843705108686BE7022002B0BDE8F0811B
:1045B800C8013FF568AF4D498A423FF464AFA2682D
:1045C80022F0E072324342F08072A2605BE7800E14
:1045D800013000F01F050124800600F0F840AC40CF
:1045E800092D44EA000405EB4500C3D80005C5E7DA
:1045F800146E146EC0F31206C4F384646EBBC0F369
:104608008460844200F0B780546E566E02F16004F4
:10461800C6F3846602F1640E864200F09080A668B4
:10462800A66804F1080CC6F38466864200F0B980D7
:10463800E668E66804F10C07C6F38464A04200F05B
:104648009480284607E702F1140635582C40345068
:10465800506940F000405061C9E690FAA0F626B1D2
:10466800B6FA86F6B44200F08680546E566E02F1B1
:104678006004C6F3846602F1640E95FAA5F704F1A6
:10468800080CE0461FB1B7FA87F7B74259D0A668B9
:10469800A668C6F3846695FAA5FE04F10C07B84629
:1046A800BEF1000F03D0BEFA8EFEB6457BD0E66899
:1046B800E468C4F3846495FAA5F6002E3FF4CBAE03
:1046C800B6FA86F0BAE700BF00F0FF03FFFF070065
:1046D80000007F400000088000030050000021C354
:1046E8001000C090000052C7000084CB00010050A9
:1046F80038030020632D3E0590FAA0F4002C73D0F7
:10470800B4FA84F40134A40604F0F84490FAA0F54D
:10471800002D67D0B5FA85F5013505F01F0501268E
:1047280006FA05F52C4390FAA0F0002857D0B0FA05
:1047380080F0013000F01F0000EB400056E704F164
:104748000808DEF8000020F00040CEF800000D68F0
:10475800A068A668C5F31207C446C6F3846628464F
:10476800002F98D1C5F384605FE7386820F00040D7
:10477800386008686FE6106E144620F0004044F870
:10478800600F0D68506E566EC5F3120702F1640E85
:10479800C6F384662846002F7FF46FAFC5F38460A4
:1047A8003AE704F10C08DCF8000020F00040CCF8EF
:1047B80000000D68E068E468C5F312064746C4F3D4
:1047C80084642846002E7FF476AFC5F3846035E70D
:1047D8000748D3E60225C0E64FF08064B0E64FF400
:1047E8004010CBE602259DE74FF080648EE700BFBE
:1047F800000050FE2DE9F04390F8583083B00022B5
:10480800012B019200F0A9818446012380F85830D9
:10481800DCF81440DCF80030D1E90020002C72D01C
:104828000C6A012C6FD0DCF8686000F01F00C2F33E
:1048380084658540002E40F01681886A013C002876
:1048480000F01082CE6A00F07C00204330432843F9
:10485800CCE919049868070710D491F8260091F854
:1048680025404005002C40F0F380DC6891F8245086
:1048780024F4401440EA05502043D860986810F0AA
:10488800040057D0986800209C68E50713D4CE68C8
:10489800B44CD3F8B05006F01807FC40C2F3120726
:1048A800144025EA070E44EA0E04C3F8B040AE4CA3
:1048B800A64200F0F680AD490A421ED0AC4DAD4C80
:1048C800A968A24201F0E07600F09C80AA4CA242BE
:1048D80000F09880A94CA24200F05E81A84CA24248
:1048E8000BD14A0209D4A74A934206D0AB6823F0F9
:1048F800E073334343F48003AB6000238CF85830F3
:1049080003B0BDE8F0830928A4D1886A540C04F4E4
:10491800785420B1CD6A00F07C0028430443D86C59
:10492800994D28402043D8649868CCF8644007071C
:10493800A4D492E79C682607A6D48C6A91F825002F
:10494800002C40F0A5800128D86800F08D8120F067
:104958000070D860002091F83040012C00F0778179
:104968001C6924F002041C618D68C2F304560724F4
:10497800D20DB440B5F1004F02F004026FEA04040E
:1049880000F05B8103F11407B540BE5834402C4356
:10499800BC505A6922F000425A610E690A68DC6804
:1049A800042E154600F00781C4F3C104650003F125
:1049B8006004764F54F826E002F0F8420EEA070742
:1049C80017434A69AA403A4342F0004244F8262075
:1049D8000E698D6954F8262022F080722A4344F823
:1049E80026200E690D7F54F82620A5F10105B5FA99
:1049F80085F56D0922F0007242EA456244F82620E6
:104A08000A6841E70C023FF578AFB3F1A04F7FF495
:104A180074AF574A5E49936823F0E073334343F415
:104A2800000393600B685B4A9B09A2FB03239B0965
:104A380003EB43039B0018330193019B002B3FF4C6
:104A48005CAF019B013B0193019B002BF9D154E71B
:104A5800DC6824F440142043D860986810F00400FF
:104A68003FF468AF0EE7DCF86440013E2C43CCF815
:104A78006860CCF86440002E7FF4ECAED86C424DF0
:104A880028402043D864986807073FF5F7AEE4E666
:104A9800CC6A002C3FF457AF012800F02981D86870
:104AA80055E747BB940E013404F01F050122A40604
:104AB800AA4004F0F844092D44EA020405EB450233
:104AC80049D91E3A120542F000721443E50D8A686E
:104AD80005F0040503F11406C4F3045402FA04F7BC
:104AE8004FF0070E72590EFA04F422EA04023A4310
:104AF80072510A68DFE692FAA2F43CB1B4FA84F47F
:104B0800013404F01F04092C00F2CF8092FAA2F4B9
:104B1800002C00F04A81B4FA84F40134A40604F0AD
:104B2800F84492FAA2F5002D00F03D81B5FA85F51A
:104B3800013505F01F05012606FA05F52C4392FA02
:104B4800A2F2002A00F02C81B2FA82F2013202F0BD
:104B58001F0202EB42021205B7E7022003B0BDE8CC
:104B6800F08300BFFFFF070000007F4000000880BF
:104B780000030050000021C31000C090000052C77D
:104B8800000084CB000100500040100400F0FF0337
:104B980038030020632D3E05C9013FF5AEAE844AB7
:104BA80093423FF4AAAEAB6823F0E073334343F07B
:104BB8008073AB60A1E61C6E1C6EC2F31206C4F3D0
:104BC8008464002E54D092FAA2F626B1B6FA86F67C
:104BD800B44200F0B1805C6E5E6E03F16004C6F30F
:104BE800846603F1640895FAA5F704F1080EF14606
:104BF80027B1B7FA87F7B74200F0B680A668A6686B
:104C0800C6F3846695FAA5F804F10C07B946B8F11D
:104C1800000F03D0B8FA88F8B04578D0E668E468A1
:104C2800C4F3846495FAA5F6002E3FF42DAEB6FAC7
:104C380086F2A24263D02A4626E603F11406B55846
:104C48002C40B4505A6942F000425A61A5E6D1E9B5
:104C58000D461D69344325F4FF752C4344F00204C6
:104C68001C6181E62046F2E540F00070D86071E6EC
:104C7800C2F3846294425FD05C6E5E6E03F160049E
:104C8800C6F3846603F1640896426BD0A668A668EA
:104C980004F1080EC6F38466964236D0E668E668E4
:104CA80004F10C07C6F38464C3E792FAA2F4002C5B
:104CB80071D0B4FA84F40134A40604F0F84492FAEA
:104CC800A2F5002D65D0B5FA85F5013505F01F056B
:104CD800012606FA05F52C4392FAA2F2002A5DD0C5
:104CE800B2FA82F2013202F01F0202EB4202E8E657
:104CF800DCF85C4044F02004CCF85C402BE63A68D1
:104D080022F000423A600A68BEE504F10C09DEF8B8
:104D1800002022F00042CEF800200D68E268E46826
:104D2800C5F312064F46C4F384642A46002E7FF466
:104D380079AFC5F384627CE71A6E1C4622F0004204
:104D480044F8602F0D685A6E5E6EC5F31207C6F3FD
:104D5800846603F164082A46002F7FF444AFC5F344
:104D6800846291E704F10809D8F8002022F0004293
:104D7800C8F800200D68A268A668C5F31207CE46D9
:104D8800C6F384662A46002F7FF43CAFC5F38462DD
:104D980082E702259FE74FF0806490E7054A94E692
:104DA8004FF4401291E60225C8E64FF08064B8E659
:104DB80000010050000050FE90F85820012A46D00B
:104DC800F0B404689CB0034600220120B4F1A04F5F
:104DD800189283F85800199208D0D96D83F8582092
:104DE80041F02001D9651CB0F0BC7047224A906898
:104DF80040070BD5A268DA6D42F020020120DA657F
:104E0800002283F858201CB0F0BC7047A068450702
:104E1800F1D40D68EDB1194E4F68B06893F838C0F9
:104E280020F46040384340EA4C30B060A068926893
:104E3800C0070AD4D70708D4B268896822F4716217
:104E48000D4322F00F021543B5600020D8E7022079
:104E580070470A48816821F460418160A1689268BE
:104E6800CD07F2D4D407F0D4826822F4716222F01C
:104E78000F028260E9E700BF000100500003005004
:104E8800B0B110B590F82130044603F0FF0253B1D9
:104E980000200123606284F82130C4E90100C4E9DC
:104EA8000300606110BD80F82020FEF715FAEFE7D7
:104EB800012070470749CA6803024FF6FF0003F450
:104EC800E0630240134343F0BF6343F40033CB6015
:104ED800704700BF00ED00E01A4BDB68C3F3022304
:104EE80000B5C3F1070EBEF1040F03F1040C28BF8F
:104EF8004FF0040EBCF1060F1BD9A3F1030C4FF0C1
:104F0800FF3303FA0CF322EA03024FF0FF3303FAEC
:104F18000EF321EA030303FA0CF313431B010028E1
:104F2800DBB209DB00F1604000F5614080F8003336
:104F380000BD00229446E8E7034A00F00F0002444F
:104F4800137600BD00ED00E0FCEC00E0002807DB74
:104F5800044A4109012300F01F00834042F8213030
:104F6800704700BF00E100E0BFF34F8F0549064BD3
:104F7800CA6802F4E0621343CB60BFF34F8F00BFEF
:104F8800FDE700BF00ED00E00400FA050138B0F1CC
:104F9800807F01D30120704710B44FF0E023074C05
:104FA80058614FF0F00C84F823C000220721104606
:104FB8009A615DF8044B1961704700BF00ED00E08D
:104FC800704700BF08B5FFF7FBFF08BD002879D080
:104FD800F0B43D4A0468944203465ED93B493C4AD2
:104FE8003C4D2144A2FB012109098900022298684D
:104FF80083F82520DA68C3E910511D6902432A4362
:105008005D692A439D692A43DD692A43256825F499
:10501800FF4C1D6A2CF0700C2A4342EA0C022260F5
:105028002B4DE2B2083AA5FB0252274D1209AC42B9
:105038008CBF294E294E2A4DDD6488BF063202F006
:105048001F0201248D1904FA02F2B0F5804F1A6587
:105058009D644FEA910129D05D68204F05F07F00DB
:10506800013D032D46F82100C7F8842025D81D4AA4
:105078001D4D02449200013884400021C3E91525E2
:10508800DC651160194A546400200122D86383F852
:10509800240083F82520F0BC704715490C4A154DAB
:1050A8002144A2FB0121090989009FE700205860DB
:1050B80046F821000949C1F884200022C3E91522D5
:1050C800DA65E1E70120704707040240F8FBFDBFFD
:1050D800CDCCCCCC0004024020080240000802409D
:1050E800800802403F820010400902400009024047
:1050F800F8FFFDBF000002400B68002B00F0948110
:105108002DE9F04FB0F1904F85B04FF0000200F05C
:10511800D680DFF8308300914FF0010B0BFA02F5CF
:1051280015EA030A00F08280009E776807F0030EF4
:10513800032154000EF1FF3901FA04FCB9F1010F03
:1051480031466FEA0C0CB66878D9BEF1030F01D16D
:10515800012E05D0C568A64005EA0C052E43C66099
:1051680005680EFA04F405EA0C052C4317F4403FD1
:1051780004605BD0B04D2C6E44F001042C662C6E9C
:1051880004F001040394039C22F0030404F1804416
:1051980002F003060F2104F58034B60001FA06FC7C
:1051A800A649A568884225EA0C0500F08280A44932
:1051B800884278D0DFF890C2604500F02F81DFF890
:1051C8008CC2604500F03181DFF884C260450CBFB5
:1051D8004FF0050C4FF0060C0CFA06F63543A560A7
:1051E800D8F808406FEA0A05FE0254BF2C404AEA84
:1051F8000404C8F80840D8F80C40B90254BF2C4041
:105208004AEA0404C8F80C40D8F80440BE0354BF66
:105218002C404AEA0404C8F80440D8F80040F903CE
:1052280054BF2C404AEA0404C8F80040013233FA5B
:1052380002F47FF473AF05B0BDE8F08FD0F80890A2
:10524800C96809EA0C09A14041EA0909C0F80890AF
:10525800D0F8049029EA0509C7F30015954045EAF6
:1052680009054560C568A64005EA0C052E43BEF150
:10527800020FC6607FF474AF4FEAD20900EB8909C8
:1052880002F00706D9F82010019100990D69B600BF
:105298000F21B54001FA06F6019921EA06063543C1
:1052A800C9F820505CE74FF0020C0CFA06F63543BB
:1052B80095E74FF0010C0CFA06F635438FE7DFF857
:1052C800848151E0032C01D1012E06D0C56806FA6D
:1052D8000EF60CEA05052E43C660056804FA0EF4BE
:1052E80005EA0C052C4317F4403F046037D0524DB3
:1052F8002C6E44F001042C662C6E04F00104039417
:10530800039C22F0030404F1804404F5803402F085
:1053180003050F26AD0006FA05F5A66826EA050579
:10532800A560FE02D8F808406FEA090573D42C403E
:10533800C8F80840BE02D8F80C4069D42C40C8F818
:105348000C40BE03D8F804405FD42C40C8F8044091
:10535800FF03D8F8004055D42C40C8F8004001326B
:1053680033FA02F43FF467AF012404FA02F513EAB2
:105378000509F4D04F6802FA04FE07F00304032677
:1053880004F1FF3A06FA0EFCBAF1010F8E686FEAD3
:105398000C0C97D806FA0EF6D0F808B00096CE682E
:1053A8000CEA0B0B06FA0EFA4AEA0B0AC0F808A038
:1053B800D0F804A0009E2AEA050AC7F30015954014
:1053C80045EA0A054560C5680CEA05052E43022C26
:1053D800C66082D1D6080D69B60002F0070A06F148
:1053E80090464FEA8A0A05FA0AF5D6F820B00095E1
:1053F8000F2505FA0AFA009D2BEA0A0B45EA0B0568
:1054080035626AE744EA0904A7E744EA09049DE724
:1054180049EA040493E749EA040489E74FF0030CD6
:105428000CFA06F63543DAE670474FF0040C0CFA2E
:1054380006F63543D3E600BF0010024000040048DA
:105448000008004800040140000C00480010004813
:1054580000140048354A136860B903F4C063B3F513
:10546800806FD2F880301CD023F48073C2F880306B
:1054780000207047B0F5007F06D023F4C06343F4E2
:10548800806313600020704703F4C063B3F5806F36
:10549800D2F880302AD043F48073C2F880300020DC
:1054A800704723F48073C2F880301368204821497C
:1054B80023F4C06343F4007313600368322000FBD5
:1054C80003F35069A1FB03139B0C400503F101038F
:1054D80006D55169490503F1FF3301D5002BF8D1F1
:1054E800124B5B695B05CDD50320704743F480738D
:1054F800C2F8803013680E480E4923F4C06343F4A1
:10550800007313600368322000FB03F35069A1FBAA
:1055180003139B0C400503F10103E1D551694905CB
:1055280003F1FF33DCD5002BF8D1D9E70070004038
:105538003803002083DE1B43024A936843F4804308
:105548009360704700700040002800F039822DE910
:10555800F0410368D90782B004462DD5A5498A6869
:10556800C96802F00C020C2A00F00281082A00F037
:1055780004816368B3F5803F00F02981B3F5A02F5B
:1055880000F092819B4D2A6822F480322A602A68B2
:1055980022F480222A60002B40F01E81FEF7D0FD05
:1055A800064605E0FEF7CCFD801B642800F2398131
:1055B8002B689903F6D423689A0728D58D4A9368EF
:1055C800D26803F00C030C2B00F0E280042B00F0EF
:1055D800E480E368874D002B00F014812B6843F4C6
:1055E80080732B60FEF7ACFD064605E0FEF7A8FDCC
:1055F800801B022800F215812B685F05F6D56B68C1
:10560800226923F0FE4343EA02636B6023681A07AA
:1056180019D56369774D002B00F09680D5F8943042
:1056280043F00103C5F89430FEF78AFD064605E00D
:10563800FEF786FD801B022800F2F380D5F894302F
:105648009B07F5D523685D0741D56A4B9A6DD00055
:1056580000F1EB809A6D42F080529A659B6D03F0E1
:1056680080530193019B0125634E3368D90540F1AE
:105678000A81A368012B00F0DA80052B00F05E8117
:105688005C4ED6F8902022F00102C6F89020D6F899
:10569800902022F00402C6F89020002B40F0CE8023
:1056A800FEF74EFD41F28838074605E0FEF748FD53
:1056B800C01B404500F2B580D6F890309907F5D464
:1056C80025B14C4A936D23F08053936523689A065D
:1056D80018D5A369474D002B00F0C180D5F8983044
:1056E80043F00103C5F89830FEF72AFD064605E0A9
:1056F800FEF726FD801B022800F29380D5F898302B
:105708009B07F5D5E369EBB13A4DAA6802F00C02A4
:105718000C2A00F02181022B2B6823F080732B6068
:1057280000F0CF80FEF70CFD044604E0FEF708FD0C
:10573800001B022875D82B689B01F7D4EA682F4B09
:105748001340EB6000206DE0D5F8943023F001039E
:10575800C5F89430FEF7F4FC064604E0FEF7F0FCCA
:10576800801B02285DD8D5F894309F07F6D469E7E6
:1057780001F0030103297FF4FCAE1E4A126892036C
:105788007FF51AAF6268002A7FF416AF012049E05E
:1057980002F00302022A7FF41CAF164B1B685B055C
:1057A80002D5E368002BF1D0124A206953681449E6
:1057B80023F0FE4343EA006353600868FEF776FC73
:1057C8000028E3D123681A077FF53DAF21E7094A8E
:1057D800136843F480331360FEF7B2FC054E0546A8
:1057E80004E0FEF7ADFC401B64281AD833689F0319
:1057F800F7D5E0E60010024000700040FCFFEEFE26
:10580800400300202B6823F480732B60FEF798FC7C
:1058180006462B685905D5D5FEF792FC801B022851
:10582800F7D9032002B0BDE8F08100251CE7654ADE
:10583800D2F8903043F00103C2F89030FEF780FCB4
:10584800604F064641F2883804E0FEF779FC801B79
:105858004045E6D8D7F890309B07F6D530E7D5F81D
:10586800983023F00103C5F89830FEF769FC064626
:1058780004E0FEF765FC801B0228D2D8D5F89830E2
:105888009F07F6D43EE7336843F480733360FEF72E
:1058980057FC07463368DA053FF5EBAEFEF750FCD8
:1058A800C01B0228F6D9BCE703F18043A3F53C33BB
:1058B8001A6842F480221A601A6842F480321A6028
:1058C8008AE7FEF73DFC064604E0FEF739FC801B3C
:1058D8000228A6D82B689901F7D4E9683A4B226ABE
:1058E800606A0B401343D4E90A1243EA012343EAEE
:1058F800C263D4E90C120138490843EA001301399C
:10590800520843EA4153013A43EA4263EB602B6889
:1059180043F080732B60EB6843F08073EB60FEF715
:105928000FFC284D044605E0FEF70AFC001B022880
:105938003FF677AF2B689A01F6D503E7214BD3F8EA
:10594800902042F00402C3F89020D3F8902042F04F
:105958000102C3F8902071E7012B3FF417AFEB6801
:10596800226A03F0030191427FF410AF616A03F0E9
:10597800F0020139B2EB011F7FF408AFA16A03F40A
:10598800FE42B2EB012F7FF401AFE16A03F07842E7
:10599800B2EBC16F7FF4FAAE226B520803F4C00178
:1059A800013AB1EB425F7FF4F1AE626B520803F04B
:1059B800C063013AB3EB426F14BF0120002031E706
:1059C80001207047001002400C809F01184B9A6814
:1059D80002F00C02042A26D09A6802F00C02082A67
:1059E80023D09A6802F00C020C2A01D000207047DC
:1059F800D968DA68D86801F003010329C2F30312F1
:105A0800C0F306200CBF0B4B0B4B0132B3FBF2F378
:105A180003FB00F0064BDB68C3F3416301335B0013
:105A2800B0FBF3F07047044870470248704700BF66
:105A38000010024000366E010024F400002800F037
:105A4800EE80784A2DE9F843136803F00F038B4280
:105A58000D4604460CD2136823F00F030B43136062
:105A6800136803F00F038B4202D00120BDE8F883CE
:105A78002368DF0769D56768032F00F0A0806A4BA9
:105A8800022F1B6800F097805B05EED5FFF79EFF9D
:105A9800664B984240F2C080634A936823F0F00353
:105AA80043F0800393604FF080095F4EB36823F0A2
:105AB80003033B43B360FEF743FB41F288380746D4
:105AC80004E0FEF73DFBC01B404571D8B36862682F
